{
  "contracts/Pact.sol": {
    "Pact": {
      "abi": [
        {
          "inputs": [
            {
              "internalType": "address",
              "name": "_appOwner",
              "type": "address"
            },
            {
              "internalType": "address",
              "name": "_user1",
              "type": "address"
            },
            {
              "internalType": "address",
              "name": "_user2",
              "type": "address"
            },
            {
              "internalType": "uint256",
              "name": "_wager",
              "type": "uint256"
            },
            {
              "internalType": "uint256",
              "name": "_durationInDays",
              "type": "uint256"
            }
          ],
          "stateMutability": "payable",
          "type": "constructor"
        },
        {
          "inputs": [],
          "name": "factoryOwner",
          "outputs": [
            {
              "internalType": "address",
              "name": "",
              "type": "address"
            }
          ],
          "stateMutability": "view",
          "type": "function"
        },
        {
          "inputs": [],
          "name": "getCheckInStats",
          "outputs": [
            {
              "internalType": "uint256",
              "name": "totalDaysElapsed",
              "type": "uint256"
            },
            {
              "internalType": "uint256",
              "name": "ownerCheckIns",
              "type": "uint256"
            },
            {
              "internalType": "uint256",
              "name": "partnerCheckIns",
              "type": "uint256"
            }
          ],
          "stateMutability": "view",
          "type": "function"
        },
        {
          "inputs": [
            {
              "internalType": "address",
              "name": "user",
              "type": "address"
            },
            {
              "internalType": "uint256",
              "name": "day",
              "type": "uint256"
            }
          ],
          "name": "markMissedCheckIn",
          "outputs": [],
          "stateMutability": "nonpayable",
          "type": "function"
        },
        {
          "inputs": [
            {
              "internalType": "bool",
              "name": "checkInStatus",
              "type": "bool"
            }
          ],
          "name": "submitCheckIn",
          "outputs": [],
          "stateMutability": "nonpayable",
          "type": "function"
        },
        {
          "inputs": [],
          "name": "user1",
          "outputs": [
            {
              "internalType": "address",
              "name": "",
              "type": "address"
            }
          ],
          "stateMutability": "view",
          "type": "function"
        },
        {
          "inputs": [],
          "name": "user2",
          "outputs": [
            {
              "internalType": "address",
              "name": "",
              "type": "address"
            }
          ],
          "stateMutability": "view",
          "type": "function"
        },
        {
          "inputs": [],
          "name": "withdraw",
          "outputs": [],
          "stateMutability": "nonpayable",
          "type": "function"
        },
        {
          "stateMutability": "payable",
          "type": "receive"
        }
      ],
      "evm": {
        "bytecode": {
          "linkReferences": {},
          "object": "6080604052604051611ae6380380611ae683398181016040528101906100259190610219565b846000806101000a81548173ffffffffffffffffffffffffffffffffffffffff021916908373ffffffffffffffffffffffffffffffffffffffff16021790555083600160006101000a81548173ffffffffffffffffffffffffffffffffffffffff021916908373ffffffffffffffffffffffffffffffffffffffff16021790555082600260006101000a81548173ffffffffffffffffffffffffffffffffffffffff021916908373ffffffffffffffffffffffffffffffffffffffff1602179055506002826100f491906102c3565b600381905550620151806001620151804261010f9190610334565b6101199190610365565b61012391906102c3565b600481905550620151808161013891906102c3565b6004546101459190610365565b600581905550600060068190555060006007819055506000600860006101000a81548160ff0219169083151502179055505050505050610399565b600080fd5b600073ffffffffffffffffffffffffffffffffffffffff82169050919050565b60006101b082610185565b9050919050565b6101c0816101a5565b81146101cb57600080fd5b50565b6000815190506101dd816101b7565b92915050565b6000819050919050565b6101f6816101e3565b811461020157600080fd5b50565b600081519050610213816101ed565b92915050565b600080600080600060a0868803121561023557610234610180565b5b6000610243888289016101ce565b9550506020610254888289016101ce565b9450506040610265888289016101ce565b935050606061027688828901610204565b925050608061028788828901610204565b9150509295509295909350565b7f4e487b7100000000000000000000000000000000000000000000000000000000600052601160045260246000fd5b60006102ce826101e3565b91506102d9836101e3565b92508282026102e7816101e3565b915082820484148315176102fe576102fd610294565b5b5092915050565b7f4e487b7100000000000000000000000000000000000000000000000000000000600052601260045260246000fd5b600061033f826101e3565b915061034a836101e3565b92508261035a57610359610305565b5b828204905092915050565b6000610370826101e3565b915061037b836101e3565b925082820190508082111561039357610392610294565b5b92915050565b61173e806103a86000396000f3fe6080604052600436106100745760003560e01c80636e3f26841161004e5780636e3f2684146100eb578063ac1717b014610118578063b9edb1af14610143578063c48e65f01461016e5761007b565b80630a640529146100805780633ccfd60b146100a95780634273601c146100c05761007b565b3661007b57005b600080fd5b34801561008c57600080fd5b506100a760048036038101906100a29190610ef5565b610197565b005b3480156100b557600080fd5b506100be610432565b005b3480156100cc57600080fd5b506100d5610778565b6040516100e29190610f63565b60405180910390f35b3480156100f757600080fd5b5061010061079c565b60405161010f93929190610f97565b60405180910390f35b34801561012457600080fd5b5061012d61094f565b60405161013a9190610f63565b60405180910390f35b34801561014f57600080fd5b50610158610975565b6040516101659190610f63565b60405180910390f35b34801561017a57600080fd5b5061019560048036038101906101909190611026565b61099b565b005b600160009054906101000a900473ffffffffffffffffffffffffffffffffffffffff1673ffffffffffffffffffffffffffffffffffffffff163373ffffffffffffffffffffffffffffffffffffffff1614806102405750600260009054906101000a900473ffffffffffffffffffffffffffffffffffffffff1673ffffffffffffffffffffffffffffffffffffffff163373ffffffffffffffffffffffffffffffffffffffff16145b61027f576040517f08c379a0000000000000000000000000000000000000000000000000000000008152600401610276906110c3565b60405180910390fd5b6004544210156102c4576040517f08c379a00000000000000000000000000000000000000000000000000000000081526004016102bb9061112f565b60405180910390fd5b6005544210610308576040517f08c379a00000000000000000000000000000000000000000000000000000000081526004016102ff9061119b565b60405180910390fd5b6000620151806004544261031c91906111ea565b610326919061124d565b9050600960003373ffffffffffffffffffffffffffffffffffffffff1673ffffffffffffffffffffffffffffffffffffffff168152602001908152602001600020600082815260200190815260200160002060009054906101000a900460ff16156103c6576040517f08c379a00000000000000000000000000000000000000000000000000000000081526004016103bd906112ca565b60405180910390fd5b81600960003373ffffffffffffffffffffffffffffffffffffffff1673ffffffffffffffffffffffffffffffffffffffff168152602001908152602001600020600083815260200190815260200160002060006101000a81548160ff0219169083151502179055505050565b600160009054906101000a900473ffffffffffffffffffffffffffffffffffffffff1673ffffffffffffffffffffffffffffffffffffffff163373ffffffffffffffffffffffffffffffffffffffff1614806104db5750600260009054906101000a900473ffffffffffffffffffffffffffffffffffffffff1673ffffffffffffffffffffffffffffffffffffffff163373ffffffffffffffffffffffffffffffffffffffff16145b61051a576040517f08c379a0000000000000000000000000000000000000000000000000000000008152600401610511906110c3565b60405180910390fd5b60055442101561055f576040517f08c379a000000000000000000000000000000000000000000000000000000000815260040161055690611336565b60405180910390fd5b600a60003373ffffffffffffffffffffffffffffffffffffffff1673ffffffffffffffffffffffffffffffffffffffff16815260200190815260200160002060009054906101000a900460ff16156105ec576040517f08c379a00000000000000000000000000000000000000000000000000000000081526004016105e3906113a2565b60405180910390fd5b600860009054906101000a900460ff1661060957610608610c1c565b5b6000600160009054906101000a900473ffffffffffffffffffffffffffffffffffffffff1673ffffffffffffffffffffffffffffffffffffffff163373ffffffffffffffffffffffffffffffffffffffff160361066a576006549050610670565b60075490505b60003373ffffffffffffffffffffffffffffffffffffffff1682604051610696906113f3565b60006040518083038185875af1925050503d80600081146106d3576040519150601f19603f3d011682016040523d82523d6000602084013e6106d8565b606091505b505090508061071c576040517f08c379a000000000000000000000000000000000000000000000000000000000815260040161071390611454565b60405180910390fd5b6001600a60003373ffffffffffffffffffffffffffffffffffffffff1673ffffffffffffffffffffffffffffffffffffffff16815260200190815260200160002060006101000a81548160ff0219169083151502179055505050565b60008054906101000a900473ffffffffffffffffffffffffffffffffffffffff1681565b60008060006004544210156107bb57600080600092509250925061094a565b6000620151806004546005546107d191906111ea565b6107db919061124d565b905062015180600454426107ef91906111ea565b6107f9919061124d565b935080841115610807578093505b60005b848110156109475760096000600160009054906101000a900473ffffffffffffffffffffffffffffffffffffffff1673ffffffffffffffffffffffffffffffffffffffff1673ffffffffffffffffffffffffffffffffffffffff168152602001908152602001600020600082815260200190815260200160002060009054906101000a900460ff16156108a65783806108a290611474565b9450505b60096000600260009054906101000a900473ffffffffffffffffffffffffffffffffffffffff1673ffffffffffffffffffffffffffffffffffffffff1673ffffffffffffffffffffffffffffffffffffffff168152602001908152602001600020600082815260200190815260200160002060009054906101000a900460ff161561093a57828061093690611474565b9350505b808060010191505061080a565b50505b909192565b600160009054906101000a900473ffffffffffffffffffffffffffffffffffffffff1681565b600260009054906101000a900473ffffffffffffffffffffffffffffffffffffffff1681565b60008054906101000a900473ffffffffffffffffffffffffffffffffffffffff1673ffffffffffffffffffffffffffffffffffffffff163373ffffffffffffffffffffffffffffffffffffffff1614610a29576040517f08c379a0000000000000000000000000000000000000000000000000000000008152600401610a209061152e565b60405180910390fd5b600160009054906101000a900473ffffffffffffffffffffffffffffffffffffffff1673ffffffffffffffffffffffffffffffffffffffff168273ffffffffffffffffffffffffffffffffffffffff161480610ad25750600260009054906101000a900473ffffffffffffffffffffffffffffffffffffffff1673ffffffffffffffffffffffffffffffffffffffff168273ffffffffffffffffffffffffffffffffffffffff16145b610b11576040517f08c379a0000000000000000000000000000000000000000000000000000000008152600401610b089061159a565b60405180910390fd5b600960008373ffffffffffffffffffffffffffffffffffffffff1673ffffffffffffffffffffffffffffffffffffffff168152602001908152602001600020600082815260200190815260200160002060009054906101000a900460ff1615610baf576040517f08c379a0000000000000000000000000000000000000000000000000000000008152600401610ba690611606565b60405180910390fd5b6000600960008473ffffffffffffffffffffffffffffffffffffffff1673ffffffffffffffffffffffffffffffffffffffff168152602001908152602001600020600083815260200190815260200160002060006101000a81548160ff0219169083151502179055505050565b600554421015610c61576040517f08c379a0000000000000000000000000000000000000000000000000000000008152600401610c5890611336565b60405180910390fd5b6000600654148015610c7557506000600754145b610cb4576040517f08c379a0000000000000000000000000000000000000000000000000000000008152600401610cab90611672565b60405180910390fd5b600062015180600454600554610cca91906111ea565b610cd4919061124d565b905060008060005b83811015610e195760096000600160009054906101000a900473ffffffffffffffffffffffffffffffffffffffff1673ffffffffffffffffffffffffffffffffffffffff1673ffffffffffffffffffffffffffffffffffffffff168152602001908152602001600020600082815260200190815260200160002060009054906101000a900460ff1615610d78578280610d7490611474565b9350505b60096000600260009054906101000a900473ffffffffffffffffffffffffffffffffffffffff1673ffffffffffffffffffffffffffffffffffffffff1673ffffffffffffffffffffffffffffffffffffffff168152602001908152602001600020600082815260200190815260200160002060009054906101000a900460ff1615610e0c578180610e0890611474565b9250505b8080600101915050610cdc565b5060008183610e289190611692565b905060008103610e61576002600354610e41919061124d565b6006819055506002600354610e56919061124d565b600781905550610e97565b8083600354610e7091906116c6565b610e7a919061124d565b600681905550600654600354610e9091906111ea565b6007819055505b6001600860006101000a81548160ff02191690831515021790555050505050565b600080fd5b60008115159050919050565b610ed281610ebd565b8114610edd57600080fd5b50565b600081359050610eef81610ec9565b92915050565b600060208284031215610f0b57610f0a610eb8565b5b6000610f1984828501610ee0565b91505092915050565b600073ffffffffffffffffffffffffffffffffffffffff82169050919050565b6000610f4d82610f22565b9050919050565b610f5d81610f42565b82525050565b6000602082019050610f786000830184610f54565b92915050565b6000819050919050565b610f9181610f7e565b82525050565b6000606082019050610fac6000830186610f88565b610fb96020830185610f88565b610fc66040830184610f88565b949350505050565b610fd781610f42565b8114610fe257600080fd5b50565b600081359050610ff481610fce565b92915050565b61100381610f7e565b811461100e57600080fd5b50565b60008135905061102081610ffa565b92915050565b6000806040838503121561103d5761103c610eb8565b5b600061104b85828601610fe5565b925050602061105c85828601611011565b9150509250929050565b600082825260208201905092915050565b7f4e6f7420612070616374207061727469636970616e742e000000000000000000600082015250565b60006110ad601783611066565b91506110b882611077565b602082019050919050565b600060208201905081810360008301526110dc816110a0565b9050919050565b7f546865207061637420686173206e6f7420626567756e207965742e0000000000600082015250565b6000611119601b83611066565b9150611124826110e3565b602082019050919050565b600060208201905081810360008301526111488161110c565b9050919050565b7f54686520706163742068617320656e6465642e00000000000000000000000000600082015250565b6000611185601383611066565b91506111908261114f565b602082019050919050565b600060208201905081810360008301526111b481611178565b9050919050565b7f4e487b7100000000000000000000000000000000000000000000000000000000600052601160045260246000fd5b60006111f582610f7e565b915061120083610f7e565b9250828203905081811115611218576112176111bb565b5b92915050565b7f4e487b7100000000000000000000000000000000000000000000000000000000600052601260045260246000fd5b600061125882610f7e565b915061126383610f7e565b9250826112735761127261121e565b5b828204905092915050565b7f416c726561647920636865636b656420696e20746f6461792e00000000000000600082015250565b60006112b4601983611066565b91506112bf8261127e565b602082019050919050565b600060208201905081810360008301526112e3816112a7565b9050919050565b7f546865207061637420686173206e6f7420656e6465642e000000000000000000600082015250565b6000611320601783611066565b915061132b826112ea565b602082019050919050565b6000602082019050818103600083015261134f81611313565b9050919050565b7f5468697320757365722068617320616c72656164792077697468647261776e2e600082015250565b600061138c602083611066565b915061139782611356565b602082019050919050565b600060208201905081810360008301526113bb8161137f565b9050919050565b600081905092915050565b50565b60006113dd6000836113c2565b91506113e8826113cd565b600082019050919050565b60006113fe826113d0565b9150819050919050565b7f5472616e73666572206661696c65642e00000000000000000000000000000000600082015250565b600061143e601083611066565b915061144982611408565b602082019050919050565b6000602082019050818103600083015261146d81611431565b9050919050565b600061147f82610f7e565b91507fffffffffffffffffffffffffffffffffffffffffffffffffffffffffffffffff82036114b1576114b06111bb565b5b600182019050919050565b7f4e6f7420746865206465706c6f796572206f66207468697320636f6e7472616360008201527f742e000000000000000000000000000000000000000000000000000000000000602082015250565b6000611518602283611066565b9150611523826114bc565b604082019050919050565b600060208201905081810360008301526115478161150b565b9050919050565b7f496e76616c696420757365722e00000000000000000000000000000000000000600082015250565b6000611584600d83611066565b915061158f8261154e565b602082019050919050565b600060208201905081810360008301526115b381611577565b9050919050565b7f416c7265616479207375626d697474656420666f722074686973206461792e00600082015250565b60006115f0601f83611066565b91506115fb826115ba565b602082019050919050565b6000602082019050818103600083015261161f816115e3565b9050919050565b7f4561726e696e677320616c72656164792063616c63756c617465640000000000600082015250565b600061165c601b83611066565b915061166782611626565b602082019050919050565b6000602082019050818103600083015261168b8161164f565b9050919050565b600061169d82610f7e565b91506116a883610f7e565b92508282019050808211156116c0576116bf6111bb565b5b92915050565b60006116d182610f7e565b91506116dc83610f7e565b92508282026116ea81610f7e565b91508282048414831517611701576117006111bb565b5b509291505056fea2646970667358221220dbf7c9181864d1c482ea83b1e5bf343e377ec43b0500f8ae25b96fb76927f2ae64736f6c634300081c0033",
          "opcodes": "PUSH1 0x80 PUSH1 0x40 MSTORE PUSH1 0x40 MLOAD PUSH2 0x1AE6 CODESIZE SUB DUP1 PUSH2 0x1AE6 DUP4 CODECOPY DUP2 DUP2 ADD PUSH1 0x40 MSTORE DUP2 ADD SWAP1 PUSH2 0x25 SWAP2 SWAP1 PUSH2 0x219 JUMP JUMPDEST DUP5 PUSH1 0x0 DUP1 PUSH2 0x100 EXP DUP2 SLOAD DUP2 PUSH20 0xFFFFFFFFFFFFFFFFFFFFFFFFFFFFFFFFFFFFFFFF MUL NOT AND SWAP1 DUP4 PUSH20 0xFFFFFFFFFFFFFFFFFFFFFFFFFFFFFFFFFFFFFFFF AND MUL OR SWAP1 SSTORE POP DUP4 PUSH1 0x1 PUSH1 0x0 PUSH2 0x100 EXP DUP2 SLOAD DUP2 PUSH20 0xFFFFFFFFFFFFFFFFFFFFFFFFFFFFFFFFFFFFFFFF MUL NOT AND SWAP1 DUP4 PUSH20 0xFFFFFFFFFFFFFFFFFFFFFFFFFFFFFFFFFFFFFFFF AND MUL OR SWAP1 SSTORE POP DUP3 PUSH1 0x2 PUSH1 0x0 PUSH2 0x100 EXP DUP2 SLOAD DUP2 PUSH20 0xFFFFFFFFFFFFFFFFFFFFFFFFFFFFFFFFFFFFFFFF MUL NOT AND SWAP1 DUP4 PUSH20 0xFFFFFFFFFFFFFFFFFFFFFFFFFFFFFFFFFFFFFFFF AND MUL OR SWAP1 SSTORE POP PUSH1 0x2 DUP3 PUSH2 0xF4 SWAP2 SWAP1 PUSH2 0x2C3 JUMP JUMPDEST PUSH1 0x3 DUP2 SWAP1 SSTORE POP PUSH3 0x15180 PUSH1 0x1 PUSH3 0x15180 TIMESTAMP PUSH2 0x10F SWAP2 SWAP1 PUSH2 0x334 JUMP JUMPDEST PUSH2 0x119 SWAP2 SWAP1 PUSH2 0x365 JUMP JUMPDEST PUSH2 0x123 SWAP2 SWAP1 PUSH2 0x2C3 JUMP JUMPDEST PUSH1 0x4 DUP2 SWAP1 SSTORE POP PUSH3 0x15180 DUP2 PUSH2 0x138 SWAP2 SWAP1 PUSH2 0x2C3 JUMP JUMPDEST PUSH1 0x4 SLOAD PUSH2 0x145 SWAP2 SWAP1 PUSH2 0x365 JUMP JUMPDEST PUSH1 0x5 DUP2 SWAP1 SSTORE POP PUSH1 0x0 PUSH1 0x6 DUP2 SWAP1 SSTORE POP PUSH1 0x0 PUSH1 0x7 DUP2 SWAP1 SSTORE POP PUSH1 0x0 PUSH1 0x8 PUSH1 0x0 PUSH2 0x100 EXP DUP2 SLOAD DUP2 PUSH1 0xFF MUL NOT AND SWAP1 DUP4 ISZERO ISZERO MUL OR SWAP1 SSTORE POP POP POP POP POP POP PUSH2 0x399 JUMP JUMPDEST PUSH1 0x0 DUP1 REVERT JUMPDEST PUSH1 0x0 PUSH20 0xFFFFFFFFFFFFFFFFFFFFFFFFFFFFFFFFFFFFFFFF DUP3 AND SWAP1 POP SWAP2 SWAP1 POP JUMP JUMPDEST PUSH1 0x0 PUSH2 0x1B0 DUP3 PUSH2 0x185 JUMP JUMPDEST SWAP1 POP SWAP2 SWAP1 POP JUMP JUMPDEST PUSH2 0x1C0 DUP2 PUSH2 0x1A5 JUMP JUMPDEST DUP2 EQ PUSH2 0x1CB JUMPI PUSH1 0x0 DUP1 REVERT JUMPDEST POP JUMP JUMPDEST PUSH1 0x0 DUP2 MLOAD SWAP1 POP PUSH2 0x1DD DUP2 PUSH2 0x1B7 JUMP JUMPDEST SWAP3 SWAP2 POP POP JUMP JUMPDEST PUSH1 0x0 DUP2 SWAP1 POP SWAP2 SWAP1 POP JUMP JUMPDEST PUSH2 0x1F6 DUP2 PUSH2 0x1E3 JUMP JUMPDEST DUP2 EQ PUSH2 0x201 JUMPI PUSH1 0x0 DUP1 REVERT JUMPDEST POP JUMP JUMPDEST PUSH1 0x0 DUP2 MLOAD SWAP1 POP PUSH2 0x213 DUP2 PUSH2 0x1ED JUMP JUMPDEST SWAP3 SWAP2 POP POP JUMP JUMPDEST PUSH1 0x0 DUP1 PUSH1 0x0 DUP1 PUSH1 0x0 PUSH1 0xA0 DUP7 DUP9 SUB SLT ISZERO PUSH2 0x235 JUMPI PUSH2 0x234 PUSH2 0x180 JUMP JUMPDEST JUMPDEST PUSH1 0x0 PUSH2 0x243 DUP9 DUP3 DUP10 ADD PUSH2 0x1CE JUMP JUMPDEST SWAP6 POP POP PUSH1 0x20 PUSH2 0x254 DUP9 DUP3 DUP10 ADD PUSH2 0x1CE JUMP JUMPDEST SWAP5 POP POP PUSH1 0x40 PUSH2 0x265 DUP9 DUP3 DUP10 ADD PUSH2 0x1CE JUMP JUMPDEST SWAP4 POP POP PUSH1 0x60 PUSH2 0x276 DUP9 DUP3 DUP10 ADD PUSH2 0x204 JUMP JUMPDEST SWAP3 POP POP PUSH1 0x80 PUSH2 0x287 DUP9 DUP3 DUP10 ADD PUSH2 0x204 JUMP JUMPDEST SWAP2 POP POP SWAP3 SWAP6 POP SWAP3 SWAP6 SWAP1 SWAP4 POP JUMP JUMPDEST PUSH32 0x4E487B7100000000000000000000000000000000000000000000000000000000 PUSH1 0x0 MSTORE PUSH1 0x11 PUSH1 0x4 MSTORE PUSH1 0x24 PUSH1 0x0 REVERT JUMPDEST PUSH1 0x0 PUSH2 0x2CE DUP3 PUSH2 0x1E3 JUMP JUMPDEST SWAP2 POP PUSH2 0x2D9 DUP4 PUSH2 0x1E3 JUMP JUMPDEST SWAP3 POP DUP3 DUP3 MUL PUSH2 0x2E7 DUP2 PUSH2 0x1E3 JUMP JUMPDEST SWAP2 POP DUP3 DUP3 DIV DUP5 EQ DUP4 ISZERO OR PUSH2 0x2FE JUMPI PUSH2 0x2FD PUSH2 0x294 JUMP JUMPDEST JUMPDEST POP SWAP3 SWAP2 POP POP JUMP JUMPDEST PUSH32 0x4E487B7100000000000000000000000000000000000000000000000000000000 PUSH1 0x0 MSTORE PUSH1 0x12 PUSH1 0x4 MSTORE PUSH1 0x24 PUSH1 0x0 REVERT JUMPDEST PUSH1 0x0 PUSH2 0x33F DUP3 PUSH2 0x1E3 JUMP JUMPDEST SWAP2 POP PUSH2 0x34A DUP4 PUSH2 0x1E3 JUMP JUMPDEST SWAP3 POP DUP3 PUSH2 0x35A JUMPI PUSH2 0x359 PUSH2 0x305 JUMP JUMPDEST JUMPDEST DUP3 DUP3 DIV SWAP1 POP SWAP3 SWAP2 POP POP JUMP JUMPDEST PUSH1 0x0 PUSH2 0x370 DUP3 PUSH2 0x1E3 JUMP JUMPDEST SWAP2 POP PUSH2 0x37B DUP4 PUSH2 0x1E3 JUMP JUMPDEST SWAP3 POP DUP3 DUP3 ADD SWAP1 POP DUP1 DUP3 GT ISZERO PUSH2 0x393 JUMPI PUSH2 0x392 PUSH2 0x294 JUMP JUMPDEST JUMPDEST SWAP3 SWAP2 POP POP JUMP JUMPDEST PUSH2 0x173E DUP1 PUSH2 0x3A8 PUSH1 0x0 CODECOPY PUSH1 0x0 RETURN INVALID PUSH1 0x80 PUSH1 0x40 MSTORE PUSH1 0x4 CALLDATASIZE LT PUSH2 0x74 JUMPI PUSH1 0x0 CALLDATALOAD PUSH1 0xE0 SHR DUP1 PUSH4 0x6E3F2684 GT PUSH2 0x4E JUMPI DUP1 PUSH4 0x6E3F2684 EQ PUSH2 0xEB JUMPI DUP1 PUSH4 0xAC1717B0 EQ PUSH2 0x118 JUMPI DUP1 PUSH4 0xB9EDB1AF EQ PUSH2 0x143 JUMPI DUP1 PUSH4 0xC48E65F0 EQ PUSH2 0x16E JUMPI PUSH2 0x7B JUMP JUMPDEST DUP1 PUSH4 0xA640529 EQ PUSH2 0x80 JUMPI DUP1 PUSH4 0x3CCFD60B EQ PUSH2 0xA9 JUMPI DUP1 PUSH4 0x4273601C EQ PUSH2 0xC0 JUMPI PUSH2 0x7B JUMP JUMPDEST CALLDATASIZE PUSH2 0x7B JUMPI STOP JUMPDEST PUSH1 0x0 DUP1 REVERT JUMPDEST CALLVALUE DUP1 ISZERO PUSH2 0x8C JUMPI PUSH1 0x0 DUP1 REVERT JUMPDEST POP PUSH2 0xA7 PUSH1 0x4 DUP1 CALLDATASIZE SUB DUP2 ADD SWAP1 PUSH2 0xA2 SWAP2 SWAP1 PUSH2 0xEF5 JUMP JUMPDEST PUSH2 0x197 JUMP JUMPDEST STOP JUMPDEST CALLVALUE DUP1 ISZERO PUSH2 0xB5 JUMPI PUSH1 0x0 DUP1 REVERT JUMPDEST POP PUSH2 0xBE PUSH2 0x432 JUMP JUMPDEST STOP JUMPDEST CALLVALUE DUP1 ISZERO PUSH2 0xCC JUMPI PUSH1 0x0 DUP1 REVERT JUMPDEST POP PUSH2 0xD5 PUSH2 0x778 JUMP JUMPDEST PUSH1 0x40 MLOAD PUSH2 0xE2 SWAP2 SWAP1 PUSH2 0xF63 JUMP JUMPDEST PUSH1 0x40 MLOAD DUP1 SWAP2 SUB SWAP1 RETURN JUMPDEST CALLVALUE DUP1 ISZERO PUSH2 0xF7 JUMPI PUSH1 0x0 DUP1 REVERT JUMPDEST POP PUSH2 0x100 PUSH2 0x79C JUMP JUMPDEST PUSH1 0x40 MLOAD PUSH2 0x10F SWAP4 SWAP3 SWAP2 SWAP1 PUSH2 0xF97 JUMP JUMPDEST PUSH1 0x40 MLOAD DUP1 SWAP2 SUB SWAP1 RETURN JUMPDEST CALLVALUE DUP1 ISZERO PUSH2 0x124 JUMPI PUSH1 0x0 DUP1 REVERT JUMPDEST POP PUSH2 0x12D PUSH2 0x94F JUMP JUMPDEST PUSH1 0x40 MLOAD PUSH2 0x13A SWAP2 SWAP1 PUSH2 0xF63 JUMP JUMPDEST PUSH1 0x40 MLOAD DUP1 SWAP2 SUB SWAP1 RETURN JUMPDEST CALLVALUE DUP1 ISZERO PUSH2 0x14F JUMPI PUSH1 0x0 DUP1 REVERT JUMPDEST POP PUSH2 0x158 PUSH2 0x975 JUMP JUMPDEST PUSH1 0x40 MLOAD PUSH2 0x165 SWAP2 SWAP1 PUSH2 0xF63 JUMP JUMPDEST PUSH1 0x40 MLOAD DUP1 SWAP2 SUB SWAP1 RETURN JUMPDEST CALLVALUE DUP1 ISZERO PUSH2 0x17A JUMPI PUSH1 0x0 DUP1 REVERT JUMPDEST POP PUSH2 0x195 PUSH1 0x4 DUP1 CALLDATASIZE SUB DUP2 ADD SWAP1 PUSH2 0x190 SWAP2 SWAP1 PUSH2 0x1026 JUMP JUMPDEST PUSH2 0x99B JUMP JUMPDEST STOP JUMPDEST PUSH1 0x1 PUSH1 0x0 SWAP1 SLOAD SWAP1 PUSH2 0x100 EXP SWAP1 DIV PUSH20 0xFFFFFFFFFFFFFFFFFFFFFFFFFFFFFFFFFFFFFFFF AND PUSH20 0xFFFFFFFFFFFFFFFFFFFFFFFFFFFFFFFFFFFFFFFF AND CALLER PUSH20 0xFFFFFFFFFFFFFFFFFFFFFFFFFFFFFFFFFFFFFFFF AND EQ DUP1 PUSH2 0x240 JUMPI POP PUSH1 0x2 PUSH1 0x0 SWAP1 SLOAD SWAP1 PUSH2 0x100 EXP SWAP1 DIV PUSH20 0xFFFFFFFFFFFFFFFFFFFFFFFFFFFFFFFFFFFFFFFF AND PUSH20 0xFFFFFFFFFFFFFFFFFFFFFFFFFFFFFFFFFFFFFFFF AND CALLER PUSH20 0xFFFFFFFFFFFFFFFFFFFFFFFFFFFFFFFFFFFFFFFF AND EQ JUMPDEST PUSH2 0x27F JUMPI PUSH1 0x40 MLOAD PUSH32 0x8C379A000000000000000000000000000000000000000000000000000000000 DUP2 MSTORE PUSH1 0x4 ADD PUSH2 0x276 SWAP1 PUSH2 0x10C3 JUMP JUMPDEST PUSH1 0x40 MLOAD DUP1 SWAP2 SUB SWAP1 REVERT JUMPDEST PUSH1 0x4 SLOAD TIMESTAMP LT ISZERO PUSH2 0x2C4 JUMPI PUSH1 0x40 MLOAD PUSH32 0x8C379A000000000000000000000000000000000000000000000000000000000 DUP2 MSTORE PUSH1 0x4 ADD PUSH2 0x2BB SWAP1 PUSH2 0x112F JUMP JUMPDEST PUSH1 0x40 MLOAD DUP1 SWAP2 SUB SWAP1 REVERT JUMPDEST PUSH1 0x5 SLOAD TIMESTAMP LT PUSH2 0x308 JUMPI PUSH1 0x40 MLOAD PUSH32 0x8C379A000000000000000000000000000000000000000000000000000000000 DUP2 MSTORE PUSH1 0x4 ADD PUSH2 0x2FF SWAP1 PUSH2 0x119B JUMP JUMPDEST PUSH1 0x40 MLOAD DUP1 SWAP2 SUB SWAP1 REVERT JUMPDEST PUSH1 0x0 PUSH3 0x15180 PUSH1 0x4 SLOAD TIMESTAMP PUSH2 0x31C SWAP2 SWAP1 PUSH2 0x11EA JUMP JUMPDEST PUSH2 0x326 SWAP2 SWAP1 PUSH2 0x124D JUMP JUMPDEST SWAP1 POP PUSH1 0x9 PUSH1 0x0 CALLER PUSH20 0xFFFFFFFFFFFFFFFFFFFFFFFFFFFFFFFFFFFFFFFF AND PUSH20 0xFFFFFFFFFFFFFFFFFFFFFFFFFFFFFFFFFFFFFFFF AND DUP2 MSTORE PUSH1 0x20 ADD SWAP1 DUP2 MSTORE PUSH1 0x20 ADD PUSH1 0x0 KECCAK256 PUSH1 0x0 DUP3 DUP2 MSTORE PUSH1 0x20 ADD SWAP1 DUP2 MSTORE PUSH1 0x20 ADD PUSH1 0x0 KECCAK256 PUSH1 0x0 SWAP1 SLOAD SWAP1 PUSH2 0x100 EXP SWAP1 DIV PUSH1 0xFF AND ISZERO PUSH2 0x3C6 JUMPI PUSH1 0x40 MLOAD PUSH32 0x8C379A000000000000000000000000000000000000000000000000000000000 DUP2 MSTORE PUSH1 0x4 ADD PUSH2 0x3BD SWAP1 PUSH2 0x12CA JUMP JUMPDEST PUSH1 0x40 MLOAD DUP1 SWAP2 SUB SWAP1 REVERT JUMPDEST DUP2 PUSH1 0x9 PUSH1 0x0 CALLER PUSH20 0xFFFFFFFFFFFFFFFFFFFFFFFFFFFFFFFFFFFFFFFF AND PUSH20 0xFFFFFFFFFFFFFFFFFFFFFFFFFFFFFFFFFFFFFFFF AND DUP2 MSTORE PUSH1 0x20 ADD SWAP1 DUP2 MSTORE PUSH1 0x20 ADD PUSH1 0x0 KECCAK256 PUSH1 0x0 DUP4 DUP2 MSTORE PUSH1 0x20 ADD SWAP1 DUP2 MSTORE PUSH1 0x20 ADD PUSH1 0x0 KECCAK256 PUSH1 0x0 PUSH2 0x100 EXP DUP2 SLOAD DUP2 PUSH1 0xFF MUL NOT AND SWAP1 DUP4 ISZERO ISZERO MUL OR SWAP1 SSTORE POP POP POP JUMP JUMPDEST PUSH1 0x1 PUSH1 0x0 SWAP1 SLOAD SWAP1 PUSH2 0x100 EXP SWAP1 DIV PUSH20 0xFFFFFFFFFFFFFFFFFFFFFFFFFFFFFFFFFFFFFFFF AND PUSH20 0xFFFFFFFFFFFFFFFFFFFFFFFFFFFFFFFFFFFFFFFF AND CALLER PUSH20 0xFFFFFFFFFFFFFFFFFFFFFFFFFFFFFFFFFFFFFFFF AND EQ DUP1 PUSH2 0x4DB JUMPI POP PUSH1 0x2 PUSH1 0x0 SWAP1 SLOAD SWAP1 PUSH2 0x100 EXP SWAP1 DIV PUSH20 0xFFFFFFFFFFFFFFFFFFFFFFFFFFFFFFFFFFFFFFFF AND PUSH20 0xFFFFFFFFFFFFFFFFFFFFFFFFFFFFFFFFFFFFFFFF AND CALLER PUSH20 0xFFFFFFFFFFFFFFFFFFFFFFFFFFFFFFFFFFFFFFFF AND EQ JUMPDEST PUSH2 0x51A JUMPI PUSH1 0x40 MLOAD PUSH32 0x8C379A000000000000000000000000000000000000000000000000000000000 DUP2 MSTORE PUSH1 0x4 ADD PUSH2 0x511 SWAP1 PUSH2 0x10C3 JUMP JUMPDEST PUSH1 0x40 MLOAD DUP1 SWAP2 SUB SWAP1 REVERT JUMPDEST PUSH1 0x5 SLOAD TIMESTAMP LT ISZERO PUSH2 0x55F JUMPI PUSH1 0x40 MLOAD PUSH32 0x8C379A000000000000000000000000000000000000000000000000000000000 DUP2 MSTORE PUSH1 0x4 ADD PUSH2 0x556 SWAP1 PUSH2 0x1336 JUMP JUMPDEST PUSH1 0x40 MLOAD DUP1 SWAP2 SUB SWAP1 REVERT JUMPDEST PUSH1 0xA PUSH1 0x0 CALLER PUSH20 0xFFFFFFFFFFFFFFFFFFFFFFFFFFFFFFFFFFFFFFFF AND PUSH20 0xFFFFFFFFFFFFFFFFFFFFFFFFFFFFFFFFFFFFFFFF AND DUP2 MSTORE PUSH1 0x20 ADD SWAP1 DUP2 MSTORE PUSH1 0x20 ADD PUSH1 0x0 KECCAK256 PUSH1 0x0 SWAP1 SLOAD SWAP1 PUSH2 0x100 EXP SWAP1 DIV PUSH1 0xFF AND ISZERO PUSH2 0x5EC JUMPI PUSH1 0x40 MLOAD PUSH32 0x8C379A000000000000000000000000000000000000000000000000000000000 DUP2 MSTORE PUSH1 0x4 ADD PUSH2 0x5E3 SWAP1 PUSH2 0x13A2 JUMP JUMPDEST PUSH1 0x40 MLOAD DUP1 SWAP2 SUB SWAP1 REVERT JUMPDEST PUSH1 0x8 PUSH1 0x0 SWAP1 SLOAD SWAP1 PUSH2 0x100 EXP SWAP1 DIV PUSH1 0xFF AND PUSH2 0x609 JUMPI PUSH2 0x608 PUSH2 0xC1C JUMP JUMPDEST JUMPDEST PUSH1 0x0 PUSH1 0x1 PUSH1 0x0 SWAP1 SLOAD SWAP1 PUSH2 0x100 EXP SWAP1 DIV PUSH20 0xFFFFFFFFFFFFFFFFFFFFFFFFFFFFFFFFFFFFFFFF AND PUSH20 0xFFFFFFFFFFFFFFFFFFFFFFFFFFFFFFFFFFFFFFFF AND CALLER PUSH20 0xFFFFFFFFFFFFFFFFFFFFFFFFFFFFFFFFFFFFFFFF AND SUB PUSH2 0x66A JUMPI PUSH1 0x6 SLOAD SWAP1 POP PUSH2 0x670 JUMP JUMPDEST PUSH1 0x7 SLOAD SWAP1 POP JUMPDEST PUSH1 0x0 CALLER PUSH20 0xFFFFFFFFFFFFFFFFFFFFFFFFFFFFFFFFFFFFFFFF AND DUP3 PUSH1 0x40 MLOAD PUSH2 0x696 SWAP1 PUSH2 0x13F3 JUMP JUMPDEST PUSH1 0x0 PUSH1 0x40 MLOAD DUP1 DUP4 SUB DUP2 DUP6 DUP8 GAS CALL SWAP3 POP POP POP RETURNDATASIZE DUP1 PUSH1 0x0 DUP2 EQ PUSH2 0x6D3 JUMPI PUSH1 0x40 MLOAD SWAP2 POP PUSH1 0x1F NOT PUSH1 0x3F RETURNDATASIZE ADD AND DUP3 ADD PUSH1 0x40 MSTORE RETURNDATASIZE DUP3 MSTORE RETURNDATASIZE PUSH1 0x0 PUSH1 0x20 DUP5 ADD RETURNDATACOPY PUSH2 0x6D8 JUMP JUMPDEST PUSH1 0x60 SWAP2 POP JUMPDEST POP POP SWAP1 POP DUP1 PUSH2 0x71C JUMPI PUSH1 0x40 MLOAD PUSH32 0x8C379A000000000000000000000000000000000000000000000000000000000 DUP2 MSTORE PUSH1 0x4 ADD PUSH2 0x713 SWAP1 PUSH2 0x1454 JUMP JUMPDEST PUSH1 0x40 MLOAD DUP1 SWAP2 SUB SWAP1 REVERT JUMPDEST PUSH1 0x1 PUSH1 0xA PUSH1 0x0 CALLER PUSH20 0xFFFFFFFFFFFFFFFFFFFFFFFFFFFFFFFFFFFFFFFF AND PUSH20 0xFFFFFFFFFFFFFFFFFFFFFFFFFFFFFFFFFFFFFFFF AND DUP2 MSTORE PUSH1 0x20 ADD SWAP1 DUP2 MSTORE PUSH1 0x20 ADD PUSH1 0x0 KECCAK256 PUSH1 0x0 PUSH2 0x100 EXP DUP2 SLOAD DUP2 PUSH1 0xFF MUL NOT AND SWAP1 DUP4 ISZERO ISZERO MUL OR SWAP1 SSTORE POP POP POP JUMP JUMPDEST PUSH1 0x0 DUP1 SLOAD SWAP1 PUSH2 0x100 EXP SWAP1 DIV PUSH20 0xFFFFFFFFFFFFFFFFFFFFFFFFFFFFFFFFFFFFFFFF AND DUP2 JUMP JUMPDEST PUSH1 0x0 DUP1 PUSH1 0x0 PUSH1 0x4 SLOAD TIMESTAMP LT ISZERO PUSH2 0x7BB JUMPI PUSH1 0x0 DUP1 PUSH1 0x0 SWAP3 POP SWAP3 POP SWAP3 POP PUSH2 0x94A JUMP JUMPDEST PUSH1 0x0 PUSH3 0x15180 PUSH1 0x4 SLOAD PUSH1 0x5 SLOAD PUSH2 0x7D1 SWAP2 SWAP1 PUSH2 0x11EA JUMP JUMPDEST PUSH2 0x7DB SWAP2 SWAP1 PUSH2 0x124D JUMP JUMPDEST SWAP1 POP PUSH3 0x15180 PUSH1 0x4 SLOAD TIMESTAMP PUSH2 0x7EF SWAP2 SWAP1 PUSH2 0x11EA JUMP JUMPDEST PUSH2 0x7F9 SWAP2 SWAP1 PUSH2 0x124D JUMP JUMPDEST SWAP4 POP DUP1 DUP5 GT ISZERO PUSH2 0x807 JUMPI DUP1 SWAP4 POP JUMPDEST PUSH1 0x0 JUMPDEST DUP5 DUP2 LT ISZERO PUSH2 0x947 JUMPI PUSH1 0x9 PUSH1 0x0 PUSH1 0x1 PUSH1 0x0 SWAP1 SLOAD SWAP1 PUSH2 0x100 EXP SWAP1 DIV PUSH20 0xFFFFFFFFFFFFFFFFFFFFFFFFFFFFFFFFFFFFFFFF AND PUSH20 0xFFFFFFFFFFFFFFFFFFFFFFFFFFFFFFFFFFFFFFFF AND PUSH20 0xFFFFFFFFFFFFFFFFFFFFFFFFFFFFFFFFFFFFFFFF AND DUP2 MSTORE PUSH1 0x20 ADD SWAP1 DUP2 MSTORE PUSH1 0x20 ADD PUSH1 0x0 KECCAK256 PUSH1 0x0 DUP3 DUP2 MSTORE PUSH1 0x20 ADD SWAP1 DUP2 MSTORE PUSH1 0x20 ADD PUSH1 0x0 KECCAK256 PUSH1 0x0 SWAP1 SLOAD SWAP1 PUSH2 0x100 EXP SWAP1 DIV PUSH1 0xFF AND ISZERO PUSH2 0x8A6 JUMPI DUP4 DUP1 PUSH2 0x8A2 SWAP1 PUSH2 0x1474 JUMP JUMPDEST SWAP5 POP POP JUMPDEST PUSH1 0x9 PUSH1 0x0 PUSH1 0x2 PUSH1 0x0 SWAP1 SLOAD SWAP1 PUSH2 0x100 EXP SWAP1 DIV PUSH20 0xFFFFFFFFFFFFFFFFFFFFFFFFFFFFFFFFFFFFFFFF AND PUSH20 0xFFFFFFFFFFFFFFFFFFFFFFFFFFFFFFFFFFFFFFFF AND PUSH20 0xFFFFFFFFFFFFFFFFFFFFFFFFFFFFFFFFFFFFFFFF AND DUP2 MSTORE PUSH1 0x20 ADD SWAP1 DUP2 MSTORE PUSH1 0x20 ADD PUSH1 0x0 KECCAK256 PUSH1 0x0 DUP3 DUP2 MSTORE PUSH1 0x20 ADD SWAP1 DUP2 MSTORE PUSH1 0x20 ADD PUSH1 0x0 KECCAK256 PUSH1 0x0 SWAP1 SLOAD SWAP1 PUSH2 0x100 EXP SWAP1 DIV PUSH1 0xFF AND ISZERO PUSH2 0x93A JUMPI DUP3 DUP1 PUSH2 0x936 SWAP1 PUSH2 0x1474 JUMP JUMPDEST SWAP4 POP POP JUMPDEST DUP1 DUP1 PUSH1 0x1 ADD SWAP2 POP POP PUSH2 0x80A JUMP JUMPDEST POP POP JUMPDEST SWAP1 SWAP2 SWAP3 JUMP JUMPDEST PUSH1 0x1 PUSH1 0x0 SWAP1 SLOAD SWAP1 PUSH2 0x100 EXP SWAP1 DIV PUSH20 0xFFFFFFFFFFFFFFFFFFFFFFFFFFFFFFFFFFFFFFFF AND DUP2 JUMP JUMPDEST PUSH1 0x2 PUSH1 0x0 SWAP1 SLOAD SWAP1 PUSH2 0x100 EXP SWAP1 DIV PUSH20 0xFFFFFFFFFFFFFFFFFFFFFFFFFFFFFFFFFFFFFFFF AND DUP2 JUMP JUMPDEST PUSH1 0x0 DUP1 SLOAD SWAP1 PUSH2 0x100 EXP SWAP1 DIV PUSH20 0xFFFFFFFFFFFFFFFFFFFFFFFFFFFFFFFFFFFFFFFF AND PUSH20 0xFFFFFFFFFFFFFFFFFFFFFFFFFFFFFFFFFFFFFFFF AND CALLER PUSH20 0xFFFFFFFFFFFFFFFFFFFFFFFFFFFFFFFFFFFFFFFF AND EQ PUSH2 0xA29 JUMPI PUSH1 0x40 MLOAD PUSH32 0x8C379A000000000000000000000000000000000000000000000000000000000 DUP2 MSTORE PUSH1 0x4 ADD PUSH2 0xA20 SWAP1 PUSH2 0x152E JUMP JUMPDEST PUSH1 0x40 MLOAD DUP1 SWAP2 SUB SWAP1 REVERT JUMPDEST PUSH1 0x1 PUSH1 0x0 SWAP1 SLOAD SWAP1 PUSH2 0x100 EXP SWAP1 DIV PUSH20 0xFFFFFFFFFFFFFFFFFFFFFFFFFFFFFFFFFFFFFFFF AND PUSH20 0xFFFFFFFFFFFFFFFFFFFFFFFFFFFFFFFFFFFFFFFF AND DUP3 PUSH20 0xFFFFFFFFFFFFFFFFFFFFFFFFFFFFFFFFFFFFFFFF AND EQ DUP1 PUSH2 0xAD2 JUMPI POP PUSH1 0x2 PUSH1 0x0 SWAP1 SLOAD SWAP1 PUSH2 0x100 EXP SWAP1 DIV PUSH20 0xFFFFFFFFFFFFFFFFFFFFFFFFFFFFFFFFFFFFFFFF AND PUSH20 0xFFFFFFFFFFFFFFFFFFFFFFFFFFFFFFFFFFFFFFFF AND DUP3 PUSH20 0xFFFFFFFFFFFFFFFFFFFFFFFFFFFFFFFFFFFFFFFF AND EQ JUMPDEST PUSH2 0xB11 JUMPI PUSH1 0x40 MLOAD PUSH32 0x8C379A000000000000000000000000000000000000000000000000000000000 DUP2 MSTORE PUSH1 0x4 ADD PUSH2 0xB08 SWAP1 PUSH2 0x159A JUMP JUMPDEST PUSH1 0x40 MLOAD DUP1 SWAP2 SUB SWAP1 REVERT JUMPDEST PUSH1 0x9 PUSH1 0x0 DUP4 PUSH20 0xFFFFFFFFFFFFFFFFFFFFFFFFFFFFFFFFFFFFFFFF AND PUSH20 0xFFFFFFFFFFFFFFFFFFFFFFFFFFFFFFFFFFFFFFFF AND DUP2 MSTORE PUSH1 0x20 ADD SWAP1 DUP2 MSTORE PUSH1 0x20 ADD PUSH1 0x0 KECCAK256 PUSH1 0x0 DUP3 DUP2 MSTORE PUSH1 0x20 ADD SWAP1 DUP2 MSTORE PUSH1 0x20 ADD PUSH1 0x0 KECCAK256 PUSH1 0x0 SWAP1 SLOAD SWAP1 PUSH2 0x100 EXP SWAP1 DIV PUSH1 0xFF AND ISZERO PUSH2 0xBAF JUMPI PUSH1 0x40 MLOAD PUSH32 0x8C379A000000000000000000000000000000000000000000000000000000000 DUP2 MSTORE PUSH1 0x4 ADD PUSH2 0xBA6 SWAP1 PUSH2 0x1606 JUMP JUMPDEST PUSH1 0x40 MLOAD DUP1 SWAP2 SUB SWAP1 REVERT JUMPDEST PUSH1 0x0 PUSH1 0x9 PUSH1 0x0 DUP5 PUSH20 0xFFFFFFFFFFFFFFFFFFFFFFFFFFFFFFFFFFFFFFFF AND PUSH20 0xFFFFFFFFFFFFFFFFFFFFFFFFFFFFFFFFFFFFFFFF AND DUP2 MSTORE PUSH1 0x20 ADD SWAP1 DUP2 MSTORE PUSH1 0x20 ADD PUSH1 0x0 KECCAK256 PUSH1 0x0 DUP4 DUP2 MSTORE PUSH1 0x20 ADD SWAP1 DUP2 MSTORE PUSH1 0x20 ADD PUSH1 0x0 KECCAK256 PUSH1 0x0 PUSH2 0x100 EXP DUP2 SLOAD DUP2 PUSH1 0xFF MUL NOT AND SWAP1 DUP4 ISZERO ISZERO MUL OR SWAP1 SSTORE POP POP POP JUMP JUMPDEST PUSH1 0x5 SLOAD TIMESTAMP LT ISZERO PUSH2 0xC61 JUMPI PUSH1 0x40 MLOAD PUSH32 0x8C379A000000000000000000000000000000000000000000000000000000000 DUP2 MSTORE PUSH1 0x4 ADD PUSH2 0xC58 SWAP1 PUSH2 0x1336 JUMP JUMPDEST PUSH1 0x40 MLOAD DUP1 SWAP2 SUB SWAP1 REVERT JUMPDEST PUSH1 0x0 PUSH1 0x6 SLOAD EQ DUP1 ISZERO PUSH2 0xC75 JUMPI POP PUSH1 0x0 PUSH1 0x7 SLOAD EQ JUMPDEST PUSH2 0xCB4 JUMPI PUSH1 0x40 MLOAD PUSH32 0x8C379A000000000000000000000000000000000000000000000000000000000 DUP2 MSTORE PUSH1 0x4 ADD PUSH2 0xCAB SWAP1 PUSH2 0x1672 JUMP JUMPDEST PUSH1 0x40 MLOAD DUP1 SWAP2 SUB SWAP1 REVERT JUMPDEST PUSH1 0x0 PUSH3 0x15180 PUSH1 0x4 SLOAD PUSH1 0x5 SLOAD PUSH2 0xCCA SWAP2 SWAP1 PUSH2 0x11EA JUMP JUMPDEST PUSH2 0xCD4 SWAP2 SWAP1 PUSH2 0x124D JUMP JUMPDEST SWAP1 POP PUSH1 0x0 DUP1 PUSH1 0x0 JUMPDEST DUP4 DUP2 LT ISZERO PUSH2 0xE19 JUMPI PUSH1 0x9 PUSH1 0x0 PUSH1 0x1 PUSH1 0x0 SWAP1 SLOAD SWAP1 PUSH2 0x100 EXP SWAP1 DIV PUSH20 0xFFFFFFFFFFFFFFFFFFFFFFFFFFFFFFFFFFFFFFFF AND PUSH20 0xFFFFFFFFFFFFFFFFFFFFFFFFFFFFFFFFFFFFFFFF AND PUSH20 0xFFFFFFFFFFFFFFFFFFFFFFFFFFFFFFFFFFFFFFFF AND DUP2 MSTORE PUSH1 0x20 ADD SWAP1 DUP2 MSTORE PUSH1 0x20 ADD PUSH1 0x0 KECCAK256 PUSH1 0x0 DUP3 DUP2 MSTORE PUSH1 0x20 ADD SWAP1 DUP2 MSTORE PUSH1 0x20 ADD PUSH1 0x0 KECCAK256 PUSH1 0x0 SWAP1 SLOAD SWAP1 PUSH2 0x100 EXP SWAP1 DIV PUSH1 0xFF AND ISZERO PUSH2 0xD78 JUMPI DUP3 DUP1 PUSH2 0xD74 SWAP1 PUSH2 0x1474 JUMP JUMPDEST SWAP4 POP POP JUMPDEST PUSH1 0x9 PUSH1 0x0 PUSH1 0x2 PUSH1 0x0 SWAP1 SLOAD SWAP1 PUSH2 0x100 EXP SWAP1 DIV PUSH20 0xFFFFFFFFFFFFFFFFFFFFFFFFFFFFFFFFFFFFFFFF AND PUSH20 0xFFFFFFFFFFFFFFFFFFFFFFFFFFFFFFFFFFFFFFFF AND PUSH20 0xFFFFFFFFFFFFFFFFFFFFFFFFFFFFFFFFFFFFFFFF AND DUP2 MSTORE PUSH1 0x20 ADD SWAP1 DUP2 MSTORE PUSH1 0x20 ADD PUSH1 0x0 KECCAK256 PUSH1 0x0 DUP3 DUP2 MSTORE PUSH1 0x20 ADD SWAP1 DUP2 MSTORE PUSH1 0x20 ADD PUSH1 0x0 KECCAK256 PUSH1 0x0 SWAP1 SLOAD SWAP1 PUSH2 0x100 EXP SWAP1 DIV PUSH1 0xFF AND ISZERO PUSH2 0xE0C JUMPI DUP2 DUP1 PUSH2 0xE08 SWAP1 PUSH2 0x1474 JUMP JUMPDEST SWAP3 POP POP JUMPDEST DUP1 DUP1 PUSH1 0x1 ADD SWAP2 POP POP PUSH2 0xCDC JUMP JUMPDEST POP PUSH1 0x0 DUP2 DUP4 PUSH2 0xE28 SWAP2 SWAP1 PUSH2 0x1692 JUMP JUMPDEST SWAP1 POP PUSH1 0x0 DUP2 SUB PUSH2 0xE61 JUMPI PUSH1 0x2 PUSH1 0x3 SLOAD PUSH2 0xE41 SWAP2 SWAP1 PUSH2 0x124D JUMP JUMPDEST PUSH1 0x6 DUP2 SWAP1 SSTORE POP PUSH1 0x2 PUSH1 0x3 SLOAD PUSH2 0xE56 SWAP2 SWAP1 PUSH2 0x124D JUMP JUMPDEST PUSH1 0x7 DUP2 SWAP1 SSTORE POP PUSH2 0xE97 JUMP JUMPDEST DUP1 DUP4 PUSH1 0x3 SLOAD PUSH2 0xE70 SWAP2 SWAP1 PUSH2 0x16C6 JUMP JUMPDEST PUSH2 0xE7A SWAP2 SWAP1 PUSH2 0x124D JUMP JUMPDEST PUSH1 0x6 DUP2 SWAP1 SSTORE POP PUSH1 0x6 SLOAD PUSH1 0x3 SLOAD PUSH2 0xE90 SWAP2 SWAP1 PUSH2 0x11EA JUMP JUMPDEST PUSH1 0x7 DUP2 SWAP1 SSTORE POP JUMPDEST PUSH1 0x1 PUSH1 0x8 PUSH1 0x0 PUSH2 0x100 EXP DUP2 SLOAD DUP2 PUSH1 0xFF MUL NOT AND SWAP1 DUP4 ISZERO ISZERO MUL OR SWAP1 SSTORE POP POP POP POP POP JUMP JUMPDEST PUSH1 0x0 DUP1 REVERT JUMPDEST PUSH1 0x0 DUP2 ISZERO ISZERO SWAP1 POP SWAP2 SWAP1 POP JUMP JUMPDEST PUSH2 0xED2 DUP2 PUSH2 0xEBD JUMP JUMPDEST DUP2 EQ PUSH2 0xEDD JUMPI PUSH1 0x0 DUP1 REVERT JUMPDEST POP JUMP JUMPDEST PUSH1 0x0 DUP2 CALLDATALOAD SWAP1 POP PUSH2 0xEEF DUP2 PUSH2 0xEC9 JUMP JUMPDEST SWAP3 SWAP2 POP POP JUMP JUMPDEST PUSH1 0x0 PUSH1 0x20 DUP3 DUP5 SUB SLT ISZERO PUSH2 0xF0B JUMPI PUSH2 0xF0A PUSH2 0xEB8 JUMP JUMPDEST JUMPDEST PUSH1 0x0 PUSH2 0xF19 DUP5 DUP3 DUP6 ADD PUSH2 0xEE0 JUMP JUMPDEST SWAP2 POP POP SWAP3 SWAP2 POP POP JUMP JUMPDEST PUSH1 0x0 PUSH20 0xFFFFFFFFFFFFFFFFFFFFFFFFFFFFFFFFFFFFFFFF DUP3 AND SWAP1 POP SWAP2 SWAP1 POP JUMP JUMPDEST PUSH1 0x0 PUSH2 0xF4D DUP3 PUSH2 0xF22 JUMP JUMPDEST SWAP1 POP SWAP2 SWAP1 POP JUMP JUMPDEST PUSH2 0xF5D DUP2 PUSH2 0xF42 JUMP JUMPDEST DUP3 MSTORE POP POP JUMP JUMPDEST PUSH1 0x0 PUSH1 0x20 DUP3 ADD SWAP1 POP PUSH2 0xF78 PUSH1 0x0 DUP4 ADD DUP5 PUSH2 0xF54 JUMP JUMPDEST SWAP3 SWAP2 POP POP JUMP JUMPDEST PUSH1 0x0 DUP2 SWAP1 POP SWAP2 SWAP1 POP JUMP JUMPDEST PUSH2 0xF91 DUP2 PUSH2 0xF7E JUMP JUMPDEST DUP3 MSTORE POP POP JUMP JUMPDEST PUSH1 0x0 PUSH1 0x60 DUP3 ADD SWAP1 POP PUSH2 0xFAC PUSH1 0x0 DUP4 ADD DUP7 PUSH2 0xF88 JUMP JUMPDEST PUSH2 0xFB9 PUSH1 0x20 DUP4 ADD DUP6 PUSH2 0xF88 JUMP JUMPDEST PUSH2 0xFC6 PUSH1 0x40 DUP4 ADD DUP5 PUSH2 0xF88 JUMP JUMPDEST SWAP5 SWAP4 POP POP POP POP JUMP JUMPDEST PUSH2 0xFD7 DUP2 PUSH2 0xF42 JUMP JUMPDEST DUP2 EQ PUSH2 0xFE2 JUMPI PUSH1 0x0 DUP1 REVERT JUMPDEST POP JUMP JUMPDEST PUSH1 0x0 DUP2 CALLDATALOAD SWAP1 POP PUSH2 0xFF4 DUP2 PUSH2 0xFCE JUMP JUMPDEST SWAP3 SWAP2 POP POP JUMP JUMPDEST PUSH2 0x1003 DUP2 PUSH2 0xF7E JUMP JUMPDEST DUP2 EQ PUSH2 0x100E JUMPI PUSH1 0x0 DUP1 REVERT JUMPDEST POP JUMP JUMPDEST PUSH1 0x0 DUP2 CALLDATALOAD SWAP1 POP PUSH2 0x1020 DUP2 PUSH2 0xFFA JUMP JUMPDEST SWAP3 SWAP2 POP POP JUMP JUMPDEST PUSH1 0x0 DUP1 PUSH1 0x40 DUP4 DUP6 SUB SLT ISZERO PUSH2 0x103D JUMPI PUSH2 0x103C PUSH2 0xEB8 JUMP JUMPDEST JUMPDEST PUSH1 0x0 PUSH2 0x104B DUP6 DUP3 DUP7 ADD PUSH2 0xFE5 JUMP JUMPDEST SWAP3 POP POP PUSH1 0x20 PUSH2 0x105C DUP6 DUP3 DUP7 ADD PUSH2 0x1011 JUMP JUMPDEST SWAP2 POP POP SWAP3 POP SWAP3 SWAP1 POP JUMP JUMPDEST PUSH1 0x0 DUP3 DUP3 MSTORE PUSH1 0x20 DUP3 ADD SWAP1 POP SWAP3 SWAP2 POP POP JUMP JUMPDEST PUSH32 0x4E6F7420612070616374207061727469636970616E742E000000000000000000 PUSH1 0x0 DUP3 ADD MSTORE POP JUMP JUMPDEST PUSH1 0x0 PUSH2 0x10AD PUSH1 0x17 DUP4 PUSH2 0x1066 JUMP JUMPDEST SWAP2 POP PUSH2 0x10B8 DUP3 PUSH2 0x1077 JUMP JUMPDEST PUSH1 0x20 DUP3 ADD SWAP1 POP SWAP2 SWAP1 POP JUMP JUMPDEST PUSH1 0x0 PUSH1 0x20 DUP3 ADD SWAP1 POP DUP2 DUP2 SUB PUSH1 0x0 DUP4 ADD MSTORE PUSH2 0x10DC DUP2 PUSH2 0x10A0 JUMP JUMPDEST SWAP1 POP SWAP2 SWAP1 POP JUMP JUMPDEST PUSH32 0x546865207061637420686173206E6F7420626567756E207965742E0000000000 PUSH1 0x0 DUP3 ADD MSTORE POP JUMP JUMPDEST PUSH1 0x0 PUSH2 0x1119 PUSH1 0x1B DUP4 PUSH2 0x1066 JUMP JUMPDEST SWAP2 POP PUSH2 0x1124 DUP3 PUSH2 0x10E3 JUMP JUMPDEST PUSH1 0x20 DUP3 ADD SWAP1 POP SWAP2 SWAP1 POP JUMP JUMPDEST PUSH1 0x0 PUSH1 0x20 DUP3 ADD SWAP1 POP DUP2 DUP2 SUB PUSH1 0x0 DUP4 ADD MSTORE PUSH2 0x1148 DUP2 PUSH2 0x110C JUMP JUMPDEST SWAP1 POP SWAP2 SWAP1 POP JUMP JUMPDEST PUSH32 0x54686520706163742068617320656E6465642E00000000000000000000000000 PUSH1 0x0 DUP3 ADD MSTORE POP JUMP JUMPDEST PUSH1 0x0 PUSH2 0x1185 PUSH1 0x13 DUP4 PUSH2 0x1066 JUMP JUMPDEST SWAP2 POP PUSH2 0x1190 DUP3 PUSH2 0x114F JUMP JUMPDEST PUSH1 0x20 DUP3 ADD SWAP1 POP SWAP2 SWAP1 POP JUMP JUMPDEST PUSH1 0x0 PUSH1 0x20 DUP3 ADD SWAP1 POP DUP2 DUP2 SUB PUSH1 0x0 DUP4 ADD MSTORE PUSH2 0x11B4 DUP2 PUSH2 0x1178 JUMP JUMPDEST SWAP1 POP SWAP2 SWAP1 POP JUMP JUMPDEST PUSH32 0x4E487B7100000000000000000000000000000000000000000000000000000000 PUSH1 0x0 MSTORE PUSH1 0x11 PUSH1 0x4 MSTORE PUSH1 0x24 PUSH1 0x0 REVERT JUMPDEST PUSH1 0x0 PUSH2 0x11F5 DUP3 PUSH2 0xF7E JUMP JUMPDEST SWAP2 POP PUSH2 0x1200 DUP4 PUSH2 0xF7E JUMP JUMPDEST SWAP3 POP DUP3 DUP3 SUB SWAP1 POP DUP2 DUP2 GT ISZERO PUSH2 0x1218 JUMPI PUSH2 0x1217 PUSH2 0x11BB JUMP JUMPDEST JUMPDEST SWAP3 SWAP2 POP POP JUMP JUMPDEST PUSH32 0x4E487B7100000000000000000000000000000000000000000000000000000000 PUSH1 0x0 MSTORE PUSH1 0x12 PUSH1 0x4 MSTORE PUSH1 0x24 PUSH1 0x0 REVERT JUMPDEST PUSH1 0x0 PUSH2 0x1258 DUP3 PUSH2 0xF7E JUMP JUMPDEST SWAP2 POP PUSH2 0x1263 DUP4 PUSH2 0xF7E JUMP JUMPDEST SWAP3 POP DUP3 PUSH2 0x1273 JUMPI PUSH2 0x1272 PUSH2 0x121E JUMP JUMPDEST JUMPDEST DUP3 DUP3 DIV SWAP1 POP SWAP3 SWAP2 POP POP JUMP JUMPDEST PUSH32 0x416C726561647920636865636B656420696E20746F6461792E00000000000000 PUSH1 0x0 DUP3 ADD MSTORE POP JUMP JUMPDEST PUSH1 0x0 PUSH2 0x12B4 PUSH1 0x19 DUP4 PUSH2 0x1066 JUMP JUMPDEST SWAP2 POP PUSH2 0x12BF DUP3 PUSH2 0x127E JUMP JUMPDEST PUSH1 0x20 DUP3 ADD SWAP1 POP SWAP2 SWAP1 POP JUMP JUMPDEST PUSH1 0x0 PUSH1 0x20 DUP3 ADD SWAP1 POP DUP2 DUP2 SUB PUSH1 0x0 DUP4 ADD MSTORE PUSH2 0x12E3 DUP2 PUSH2 0x12A7 JUMP JUMPDEST SWAP1 POP SWAP2 SWAP1 POP JUMP JUMPDEST PUSH32 0x546865207061637420686173206E6F7420656E6465642E000000000000000000 PUSH1 0x0 DUP3 ADD MSTORE POP JUMP JUMPDEST PUSH1 0x0 PUSH2 0x1320 PUSH1 0x17 DUP4 PUSH2 0x1066 JUMP JUMPDEST SWAP2 POP PUSH2 0x132B DUP3 PUSH2 0x12EA JUMP JUMPDEST PUSH1 0x20 DUP3 ADD SWAP1 POP SWAP2 SWAP1 POP JUMP JUMPDEST PUSH1 0x0 PUSH1 0x20 DUP3 ADD SWAP1 POP DUP2 DUP2 SUB PUSH1 0x0 DUP4 ADD MSTORE PUSH2 0x134F DUP2 PUSH2 0x1313 JUMP JUMPDEST SWAP1 POP SWAP2 SWAP1 POP JUMP JUMPDEST PUSH32 0x5468697320757365722068617320616C72656164792077697468647261776E2E PUSH1 0x0 DUP3 ADD MSTORE POP JUMP JUMPDEST PUSH1 0x0 PUSH2 0x138C PUSH1 0x20 DUP4 PUSH2 0x1066 JUMP JUMPDEST SWAP2 POP PUSH2 0x1397 DUP3 PUSH2 0x1356 JUMP JUMPDEST PUSH1 0x20 DUP3 ADD SWAP1 POP SWAP2 SWAP1 POP JUMP JUMPDEST PUSH1 0x0 PUSH1 0x20 DUP3 ADD SWAP1 POP DUP2 DUP2 SUB PUSH1 0x0 DUP4 ADD MSTORE PUSH2 0x13BB DUP2 PUSH2 0x137F JUMP JUMPDEST SWAP1 POP SWAP2 SWAP1 POP JUMP JUMPDEST PUSH1 0x0 DUP2 SWAP1 POP SWAP3 SWAP2 POP POP JUMP JUMPDEST POP JUMP JUMPDEST PUSH1 0x0 PUSH2 0x13DD PUSH1 0x0 DUP4 PUSH2 0x13C2 JUMP JUMPDEST SWAP2 POP PUSH2 0x13E8 DUP3 PUSH2 0x13CD JUMP JUMPDEST PUSH1 0x0 DUP3 ADD SWAP1 POP SWAP2 SWAP1 POP JUMP JUMPDEST PUSH1 0x0 PUSH2 0x13FE DUP3 PUSH2 0x13D0 JUMP JUMPDEST SWAP2 POP DUP2 SWAP1 POP SWAP2 SWAP1 POP JUMP JUMPDEST PUSH32 0x5472616E73666572206661696C65642E00000000000000000000000000000000 PUSH1 0x0 DUP3 ADD MSTORE POP JUMP JUMPDEST PUSH1 0x0 PUSH2 0x143E PUSH1 0x10 DUP4 PUSH2 0x1066 JUMP JUMPDEST SWAP2 POP PUSH2 0x1449 DUP3 PUSH2 0x1408 JUMP JUMPDEST PUSH1 0x20 DUP3 ADD SWAP1 POP SWAP2 SWAP1 POP JUMP JUMPDEST PUSH1 0x0 PUSH1 0x20 DUP3 ADD SWAP1 POP DUP2 DUP2 SUB PUSH1 0x0 DUP4 ADD MSTORE PUSH2 0x146D DUP2 PUSH2 0x1431 JUMP JUMPDEST SWAP1 POP SWAP2 SWAP1 POP JUMP JUMPDEST PUSH1 0x0 PUSH2 0x147F DUP3 PUSH2 0xF7E JUMP JUMPDEST SWAP2 POP PUSH32 0xFFFFFFFFFFFFFFFFFFFFFFFFFFFFFFFFFFFFFFFFFFFFFFFFFFFFFFFFFFFFFFFF DUP3 SUB PUSH2 0x14B1 JUMPI PUSH2 0x14B0 PUSH2 0x11BB JUMP JUMPDEST JUMPDEST PUSH1 0x1 DUP3 ADD SWAP1 POP SWAP2 SWAP1 POP JUMP JUMPDEST PUSH32 0x4E6F7420746865206465706C6F796572206F66207468697320636F6E74726163 PUSH1 0x0 DUP3 ADD MSTORE PUSH32 0x742E000000000000000000000000000000000000000000000000000000000000 PUSH1 0x20 DUP3 ADD MSTORE POP JUMP JUMPDEST PUSH1 0x0 PUSH2 0x1518 PUSH1 0x22 DUP4 PUSH2 0x1066 JUMP JUMPDEST SWAP2 POP PUSH2 0x1523 DUP3 PUSH2 0x14BC JUMP JUMPDEST PUSH1 0x40 DUP3 ADD SWAP1 POP SWAP2 SWAP1 POP JUMP JUMPDEST PUSH1 0x0 PUSH1 0x20 DUP3 ADD SWAP1 POP DUP2 DUP2 SUB PUSH1 0x0 DUP4 ADD MSTORE PUSH2 0x1547 DUP2 PUSH2 0x150B JUMP JUMPDEST SWAP1 POP SWAP2 SWAP1 POP JUMP JUMPDEST PUSH32 0x496E76616C696420757365722E00000000000000000000000000000000000000 PUSH1 0x0 DUP3 ADD MSTORE POP JUMP JUMPDEST PUSH1 0x0 PUSH2 0x1584 PUSH1 0xD DUP4 PUSH2 0x1066 JUMP JUMPDEST SWAP2 POP PUSH2 0x158F DUP3 PUSH2 0x154E JUMP JUMPDEST PUSH1 0x20 DUP3 ADD SWAP1 POP SWAP2 SWAP1 POP JUMP JUMPDEST PUSH1 0x0 PUSH1 0x20 DUP3 ADD SWAP1 POP DUP2 DUP2 SUB PUSH1 0x0 DUP4 ADD MSTORE PUSH2 0x15B3 DUP2 PUSH2 0x1577 JUMP JUMPDEST SWAP1 POP SWAP2 SWAP1 POP JUMP JUMPDEST PUSH32 0x416C7265616479207375626D697474656420666F722074686973206461792E00 PUSH1 0x0 DUP3 ADD MSTORE POP JUMP JUMPDEST PUSH1 0x0 PUSH2 0x15F0 PUSH1 0x1F DUP4 PUSH2 0x1066 JUMP JUMPDEST SWAP2 POP PUSH2 0x15FB DUP3 PUSH2 0x15BA JUMP JUMPDEST PUSH1 0x20 DUP3 ADD SWAP1 POP SWAP2 SWAP1 POP JUMP JUMPDEST PUSH1 0x0 PUSH1 0x20 DUP3 ADD SWAP1 POP DUP2 DUP2 SUB PUSH1 0x0 DUP4 ADD MSTORE PUSH2 0x161F DUP2 PUSH2 0x15E3 JUMP JUMPDEST SWAP1 POP SWAP2 SWAP1 POP JUMP JUMPDEST PUSH32 0x4561726E696E677320616C72656164792063616C63756C617465640000000000 PUSH1 0x0 DUP3 ADD MSTORE POP JUMP JUMPDEST PUSH1 0x0 PUSH2 0x165C PUSH1 0x1B DUP4 PUSH2 0x1066 JUMP JUMPDEST SWAP2 POP PUSH2 0x1667 DUP3 PUSH2 0x1626 JUMP JUMPDEST PUSH1 0x20 DUP3 ADD SWAP1 POP SWAP2 SWAP1 POP JUMP JUMPDEST PUSH1 0x0 PUSH1 0x20 DUP3 ADD SWAP1 POP DUP2 DUP2 SUB PUSH1 0x0 DUP4 ADD MSTORE PUSH2 0x168B DUP2 PUSH2 0x164F JUMP JUMPDEST SWAP1 POP SWAP2 SWAP1 POP JUMP JUMPDEST PUSH1 0x0 PUSH2 0x169D DUP3 PUSH2 0xF7E JUMP JUMPDEST SWAP2 POP PUSH2 0x16A8 DUP4 PUSH2 0xF7E JUMP JUMPDEST SWAP3 POP DUP3 DUP3 ADD SWAP1 POP DUP1 DUP3 GT ISZERO PUSH2 0x16C0 JUMPI PUSH2 0x16BF PUSH2 0x11BB JUMP JUMPDEST JUMPDEST SWAP3 SWAP2 POP POP JUMP JUMPDEST PUSH1 0x0 PUSH2 0x16D1 DUP3 PUSH2 0xF7E JUMP JUMPDEST SWAP2 POP PUSH2 0x16DC DUP4 PUSH2 0xF7E JUMP JUMPDEST SWAP3 POP DUP3 DUP3 MUL PUSH2 0x16EA DUP2 PUSH2 0xF7E JUMP JUMPDEST SWAP2 POP DUP3 DUP3 DIV DUP5 EQ DUP4 ISZERO OR PUSH2 0x1701 JUMPI PUSH2 0x1700 PUSH2 0x11BB JUMP JUMPDEST JUMPDEST POP SWAP3 SWAP2 POP POP JUMP INVALID LOG2 PUSH5 0x6970667358 0x22 SLT KECCAK256 0xDB 0xF7 0xC9 XOR XOR PUSH5 0xD1C482EA83 0xB1 0xE5 0xBF CALLVALUE RETURNDATACOPY CALLDATACOPY PUSH31 0xC43B0500F8AE25B96FB76927F2AE64736F6C634300081C0033000000000000 "
        },
        "methodIdentifiers": {
          "factoryOwner()": "4273601c",
          "getCheckInStats()": "6e3f2684",
          "markMissedCheckIn(address,uint256)": "c48e65f0",
          "submitCheckIn(bool)": "0a640529",
          "user1()": "ac1717b0",
          "user2()": "b9edb1af",
          "withdraw()": "3ccfd60b"
        }
      }
    }
  }
}